{
  "_format": "hh-sol-artifact-1",
  "contractName": "Escrow",
  "sourceName": "contracts/Escrow.sol",
  "abi": [
    {
      "inputs": [
        {
          "internalType": "address",
          "name": "_nftAddress",
          "type": "address"
        },
        {
          "internalType": "address payable",
          "name": "_seller",
          "type": "address"
        },
        {
          "internalType": "address",
          "name": "_inspector",
          "type": "address"
        },
        {
          "internalType": "address",
          "name": "_lender",
          "type": "address"
        }
      ],
      "stateMutability": "nonpayable",
      "type": "constructor"
    },
    {
      "inputs": [
        {
          "internalType": "uint256",
          "name": "",
          "type": "uint256"
        },
        {
          "internalType": "address",
          "name": "",
          "type": "address"
        }
      ],
      "name": "approval",
      "outputs": [
        {
          "internalType": "bool",
          "name": "",
          "type": "bool"
        }
      ],
      "stateMutability": "view",
      "type": "function"
    },
    {
      "inputs": [
        {
          "internalType": "uint256",
          "name": "",
          "type": "uint256"
        }
      ],
      "name": "buyer",
      "outputs": [
        {
          "internalType": "address",
          "name": "",
          "type": "address"
        }
      ],
      "stateMutability": "view",
      "type": "function"
    },
    {
      "inputs": [
        {
          "internalType": "uint256",
          "name": "_nftID",
          "type": "uint256"
        }
      ],
      "name": "depositEarnest",
      "outputs": [],
      "stateMutability": "payable",
      "type": "function"
    },
    {
      "inputs": [
        {
          "internalType": "uint256",
          "name": "",
          "type": "uint256"
        }
      ],
      "name": "escrowAmount",
      "outputs": [
        {
          "internalType": "uint256",
          "name": "",
          "type": "uint256"
        }
      ],
      "stateMutability": "view",
      "type": "function"
    },
    {
      "inputs": [
        {
          "internalType": "uint256",
          "name": "",
          "type": "uint256"
        }
      ],
      "name": "inspectionStatus",
      "outputs": [
        {
          "internalType": "bool",
          "name": "",
          "type": "bool"
        }
      ],
      "stateMutability": "view",
      "type": "function"
    },
    {
      "inputs": [],
      "name": "inspector",
      "outputs": [
        {
          "internalType": "address",
          "name": "",
          "type": "address"
        }
      ],
      "stateMutability": "view",
      "type": "function"
    },
    {
      "inputs": [
        {
          "internalType": "uint256",
          "name": "",
          "type": "uint256"
        }
      ],
      "name": "isListed",
      "outputs": [
        {
          "internalType": "bool",
          "name": "",
          "type": "bool"
        }
      ],
      "stateMutability": "view",
      "type": "function"
    },
    {
      "inputs": [],
      "name": "lender",
      "outputs": [
        {
          "internalType": "address",
          "name": "",
          "type": "address"
        }
      ],
      "stateMutability": "view",
      "type": "function"
    },
    {
      "inputs": [
        {
          "internalType": "uint256",
          "name": "_nftID",
          "type": "uint256"
        },
        {
          "internalType": "address",
          "name": "_buyer",
          "type": "address"
        },
        {
          "internalType": "uint256",
          "name": "_purchasePrice",
          "type": "uint256"
        },
        {
          "internalType": "uint256",
          "name": "_escrowAmount",
          "type": "uint256"
        }
      ],
      "name": "list",
      "outputs": [],
      "stateMutability": "payable",
      "type": "function"
    },
    {
      "inputs": [],
      "name": "nftAddress",
      "outputs": [
        {
          "internalType": "address",
          "name": "",
          "type": "address"
        }
      ],
      "stateMutability": "view",
      "type": "function"
    },
    {
      "inputs": [
        {
          "internalType": "uint256",
          "name": "",
          "type": "uint256"
        }
      ],
      "name": "purchasePrice",
      "outputs": [
        {
          "internalType": "uint256",
          "name": "",
          "type": "uint256"
        }
      ],
      "stateMutability": "view",
      "type": "function"
    },
    {
      "inputs": [],
      "name": "seller",
      "outputs": [
        {
          "internalType": "address payable",
          "name": "",
          "type": "address"
        }
      ],
      "stateMutability": "view",
      "type": "function"
    }
  ],
  "bytecode": "0x60806040523480156200001157600080fd5b5060405162000cfd38038062000cfd8339818101604052810190620000379190620001f3565b836000806101000a81548173ffffffffffffffffffffffffffffffffffffffff021916908373ffffffffffffffffffffffffffffffffffffffff16021790555082600160006101000a81548173ffffffffffffffffffffffffffffffffffffffff021916908373ffffffffffffffffffffffffffffffffffffffff16021790555081600260006101000a81548173ffffffffffffffffffffffffffffffffffffffff021916908373ffffffffffffffffffffffffffffffffffffffff16021790555080600360006101000a81548173ffffffffffffffffffffffffffffffffffffffff021916908373ffffffffffffffffffffffffffffffffffffffff1602179055505050505062000265565b600080fd5b600073ffffffffffffffffffffffffffffffffffffffff82169050919050565b6000620001768262000149565b9050919050565b620001888162000169565b81146200019457600080fd5b50565b600081519050620001a8816200017d565b92915050565b6000620001bb8262000149565b9050919050565b620001cd81620001ae565b8114620001d957600080fd5b50565b600081519050620001ed81620001c2565b92915050565b6000806000806080858703121562000210576200020f62000144565b5b6000620002208782880162000197565b94505060206200023387828801620001dc565b9350506040620002468782880162000197565b9250506060620002598782880162000197565b91505092959194509250565b610a8880620002756000396000f3fe6080604052600436106100a75760003560e01c8063b848de3511610064578063b848de35146101f6578063bcead63e14610233578063c9f0ec7e1461025e578063e740f7701461027a578063ed2cee9e14610296578063fcce4883146102c1576100a7565b806308551a53146100ac5780634dd4acaf146100d75780635bf8633a146101145780635d19e56c1461013f57806377fbc4ae1461017c5780638175e543146101b9575b600080fd5b3480156100b857600080fd5b506100c16102fe565b6040516100ce9190610740565b60405180910390f35b3480156100e357600080fd5b506100fe60048036038101906100f99190610796565b610324565b60405161010b91906107e4565b60405180910390f35b34801561012057600080fd5b50610129610357565b60405161013691906107e4565b60405180910390f35b34801561014b57600080fd5b5061016660048036038101906101619190610796565b61037b565b604051610173919061080e565b60405180910390f35b34801561018857600080fd5b506101a3600480360381019061019e9190610796565b610393565b6040516101b0919061080e565b60405180910390f35b3480156101c557600080fd5b506101e060048036038101906101db9190610796565b6103ab565b6040516101ed9190610844565b60405180910390f35b34801561020257600080fd5b5061021d6004803603810190610218919061088b565b6103cb565b60405161022a9190610844565b60405180910390f35b34801561023f57600080fd5b506102486103fa565b60405161025591906107e4565b60405180910390f35b610278600480360381019061027391906108cb565b610420565b005b610294600480360381019061028f9190610796565b6105f3565b005b3480156102a257600080fd5b506102ab6106b9565b6040516102b891906107e4565b60405180910390f35b3480156102cd57600080fd5b506102e860048036038101906102e39190610796565b6106df565b6040516102f59190610844565b60405180910390f35b600160009054906101000a900473ffffffffffffffffffffffffffffffffffffffff1681565b60076020528060005260406000206000915054906101000a900473ffffffffffffffffffffffffffffffffffffffff1681565b60008054906101000a900473ffffffffffffffffffffffffffffffffffffffff1681565b60066020528060005260406000206000915090505481565b60056020528060005260406000206000915090505481565b60086020528060005260406000206000915054906101000a900460ff1681565b60096020528160005260406000206020528060005260406000206000915091509054906101000a900460ff1681565b600360009054906101000a900473ffffffffffffffffffffffffffffffffffffffff1681565b600160009054906101000a900473ffffffffffffffffffffffffffffffffffffffff1673ffffffffffffffffffffffffffffffffffffffff163373ffffffffffffffffffffffffffffffffffffffff16146104b0576040517f08c379a00000000000000000000000000000000000000000000000000000000081526004016104a79061098f565b60405180910390fd5b60008054906101000a900473ffffffffffffffffffffffffffffffffffffffff1673ffffffffffffffffffffffffffffffffffffffff166323b872dd3330876040518463ffffffff1660e01b815260040161050d939291906109af565b600060405180830381600087803b15801561052757600080fd5b505af115801561053b573d6000803e3d6000fd5b5050505060016004600086815260200190815260200160002060006101000a81548160ff021916908315150217905550816005600086815260200190815260200160002081905550806006600086815260200190815260200160002081905550826007600086815260200190815260200160002060006101000a81548173ffffffffffffffffffffffffffffffffffffffff021916908373ffffffffffffffffffffffffffffffffffffffff16021790555050505050565b806007600082815260200190815260200160002060009054906101000a900473ffffffffffffffffffffffffffffffffffffffff1673ffffffffffffffffffffffffffffffffffffffff163373ffffffffffffffffffffffffffffffffffffffff1614610695576040517f08c379a000000000000000000000000000000000000000000000000000000000815260040161068c90610a32565b60405180910390fd5b60066000838152602001908152602001600020543410156106b557600080fd5b5050565b600260009054906101000a900473ffffffffffffffffffffffffffffffffffffffff1681565b60046020528060005260406000206000915054906101000a900460ff1681565b600073ffffffffffffffffffffffffffffffffffffffff82169050919050565b600061072a826106ff565b9050919050565b61073a8161071f565b82525050565b60006020820190506107556000830184610731565b92915050565b600080fd5b6000819050919050565b61077381610760565b811461077e57600080fd5b50565b6000813590506107908161076a565b92915050565b6000602082840312156107ac576107ab61075b565b5b60006107ba84828501610781565b91505092915050565b60006107ce826106ff565b9050919050565b6107de816107c3565b82525050565b60006020820190506107f960008301846107d5565b92915050565b61080881610760565b82525050565b600060208201905061082360008301846107ff565b92915050565b60008115159050919050565b61083e81610829565b82525050565b60006020820190506108596000830184610835565b92915050565b610868816107c3565b811461087357600080fd5b50565b6000813590506108858161085f565b92915050565b600080604083850312156108a2576108a161075b565b5b60006108b085828601610781565b92505060206108c185828601610876565b9150509250929050565b600080600080608085870312156108e5576108e461075b565b5b60006108f387828801610781565b945050602061090487828801610876565b935050604061091587828801610781565b925050606061092687828801610781565b91505092959194509250565b600082825260208201905092915050565b7f4f6e6c792053656c6c65722063616e2063616c6c2074686973206d6574686f64600082015250565b6000610979602083610932565b915061098482610943565b602082019050919050565b600060208201905081810360008301526109a88161096c565b9050919050565b60006060820190506109c460008301866107d5565b6109d160208301856107d5565b6109de60408301846107ff565b949350505050565b7f4f6e6c792053656c6c65722063616e2063616c6c2054686973204d6574686f64600082015250565b6000610a1c602083610932565b9150610a27826109e6565b602082019050919050565b60006020820190508181036000830152610a4b81610a0f565b905091905056fea264697066735822122069c88a8e0a94509a0dfd163af5e492c9dd66ee5cacc0b6aecde30b177603239164736f6c63430008110033",
  "linkReferences": {},
  "deployedLinkReferences": {}
}